{
  "contractName": "Contract",
  "abi": [
    {
      "inputs": [
        {
          "internalType": "string",
          "name": "uen",
          "type": "string"
        },
        {
          "internalType": "uint256",
          "name": "amt",
          "type": "uint256"
        }
      ],
      "stateMutability": "nonpayable",
      "type": "constructor"
    },
    {
      "inputs": [],
      "name": "getStatus",
      "outputs": [
        {
          "internalType": "enum Contract.Status",
          "name": "",
          "type": "uint8"
        }
      ],
      "stateMutability": "view",
      "type": "function"
    },
    {
      "inputs": [],
      "name": "setPaid",
      "outputs": [],
      "stateMutability": "nonpayable",
      "type": "function"
    },
    {
      "inputs": [],
      "name": "setDefaulted",
      "outputs": [],
      "stateMutability": "nonpayable",
      "type": "function"
    }
  ],
  "bytecode": "0x608060405234801561001057600080fd5b50604051610670380380610670833981810160405281019061003291906101ea565b33600360006101000a81548173ffffffffffffffffffffffffffffffffffffffff021916908373ffffffffffffffffffffffffffffffffffffffff16021790555060026000806101000a81548160ff021916908360028111156100985761009761033c565b5b02179055508060028190555081600190805190602001906100ba9291906100c2565b505050610405565b8280546100ce906102d9565b90600052602060002090601f0160209004810192826100f05760008555610137565b82601f1061010957805160ff1916838001178555610137565b82800160010185558215610137579182015b8281111561013657825182559160200191906001019061011b565b5b5090506101449190610148565b5090565b5b80821115610161576000816000905550600101610149565b5090565b60006101786101738461026b565b610246565b905082815260208101848484011115610194576101936103ce565b5b61019f8482856102a6565b509392505050565b600082601f8301126101bc576101bb6103c9565b5b81516101cc848260208601610165565b91505092915050565b6000815190506101e4816103ee565b92915050565b60008060408385031215610201576102006103d8565b5b600083015167ffffffffffffffff81111561021f5761021e6103d3565b5b61022b858286016101a7565b925050602061023c858286016101d5565b9150509250929050565b6000610250610261565b905061025c828261030b565b919050565b6000604051905090565b600067ffffffffffffffff8211156102865761028561039a565b5b61028f826103dd565b9050602081019050919050565b6000819050919050565b60005b838110156102c45780820151818401526020810190506102a9565b838111156102d3576000848401525b50505050565b600060028204905060018216806102f157607f821691505b602082108114156103055761030461036b565b5b50919050565b610314826103dd565b810181811067ffffffffffffffff821117156103335761033261039a565b5b80604052505050565b7f4e487b7100000000000000000000000000000000000000000000000000000000600052602160045260246000fd5b7f4e487b7100000000000000000000000000000000000000000000000000000000600052602260045260246000fd5b7f4e487b7100000000000000000000000000000000000000000000000000000000600052604160045260246000fd5b600080fd5b600080fd5b600080fd5b600080fd5b6000601f19601f8301169050919050565b6103f78161029c565b811461040257600080fd5b50565b61025c806104146000396000f3fe608060405234801561001057600080fd5b50600436106100415760003560e01c80634318d280146100465780634e69d56014610050578063fab320e91461006e575b600080fd5b61004e610078565b005b6100586100fb565b60405161006591906101a3565b60405180910390f35b610076610111565b005b600360009054906101000a900473ffffffffffffffffffffffffffffffffffffffff1673ffffffffffffffffffffffffffffffffffffffff163373ffffffffffffffffffffffffffffffffffffffff1614156100f95760008060006101000a81548160ff021916908360028111156100f3576100f26101e3565b5b02179055505b565b60008060009054906101000a900460ff16905090565b600360009054906101000a900473ffffffffffffffffffffffffffffffffffffffff1673ffffffffffffffffffffffffffffffffffffffff163373ffffffffffffffffffffffffffffffffffffffff1614156101925760016000806101000a81548160ff0219169083600281111561018c5761018b6101e3565b5b02179055505b565b61019d816101d1565b82525050565b60006020820190506101b86000830184610194565b92915050565b60008190506101cc82610212565b919050565b60006101dc826101be565b9050919050565b7f4e487b7100000000000000000000000000000000000000000000000000000000600052602160045260246000fd5b60038110610223576102226101e3565b5b5056fea2646970667358221220199244b0ad9136382ca67bcde22317bb186b18cb20f486cfc7f46a2ed4ed32df64736f6c63430008070033",
  "immutableReferences": {},
  "source": "// SPDX-License-Identifier: GPL-3.0\npragma solidity ^0.8.0;\n\ncontract Contract {\n    enum Status {Defaulted, Paid, Pending}\n    Status status;\n    string businessUEN;\n    uint amount;\n    address owner;\n    \n    constructor(string memory uen, uint amt) {\n        owner = msg.sender;\n        status = Status.Pending;\n        amount = amt;\n        businessUEN = uen;\n    }\n    \n    function getStatus() public view returns(Status) {\n        return status;\n    }\n    \n    function setPaid() public {\n        if (msg.sender == owner) {\n             status = Status.Paid;\n        }\n    }\n    \n    function setDefaulted() public {\n        if (msg.sender == owner) {\n             status = Status.Defaulted;\n        }\n    }\n    \n}",
  "sourcePath": "/Users/sherman/Github/socially_responsible/contract/contracts/Contract.sol",
  "compiler": {
    "name": "solc",
    "version": "0.8.7+commit.e28d00a7.Emscripten.clang"
  },
  "schemaVersion": "3.4.0",
  "updatedAt": "2021-08-27T07:52:09.946Z",
  "devdoc": {
    "kind": "dev",
    "methods": {},
    "version": 1
  },
  "userdoc": {
    "kind": "user",
    "methods": {},
    "version": 1
  }
}